{
  "_format": "hh-sol-artifact-1",
  "contractName": "elections",
  "sourceName": "contracts/elections.sol",
  "abi": [
    {
      "inputs": [],
      "stateMutability": "nonpayable",
      "type": "constructor"
    },
    {
      "anonymous": false,
      "inputs": [
        {
          "indexed": true,
          "internalType": "uint256",
          "name": "candidateID",
          "type": "uint256"
        },
        {
          "indexed": false,
          "internalType": "string",
          "name": "name",
          "type": "string"
        }
      ],
      "name": "candidateadded",
      "type": "event"
    },
    {
      "anonymous": false,
      "inputs": [
        {
          "indexed": true,
          "internalType": "uint256",
          "name": "candidateID",
          "type": "uint256"
        },
        {
          "indexed": false,
          "internalType": "string",
          "name": "name",
          "type": "string"
        }
      ],
      "name": "candidateremoved",
      "type": "event"
    },
    {
      "anonymous": false,
      "inputs": [
        {
          "indexed": false,
          "internalType": "address",
          "name": "oldcontroller",
          "type": "address"
        },
        {
          "indexed": false,
          "internalType": "address",
          "name": "newcontroller",
          "type": "address"
        }
      ],
      "name": "controllerchanged",
      "type": "event"
    },
    {
      "anonymous": false,
      "inputs": [
        {
          "indexed": true,
          "internalType": "uint256",
          "name": "candidateID",
          "type": "uint256"
        },
        {
          "indexed": false,
          "internalType": "address",
          "name": "voter",
          "type": "address"
        }
      ],
      "name": "voted",
      "type": "event"
    },
    {
      "inputs": [
        {
          "internalType": "string",
          "name": "_candidatename",
          "type": "string"
        }
      ],
      "name": "addcandidate",
      "outputs": [],
      "stateMutability": "nonpayable",
      "type": "function"
    },
    {
      "inputs": [
        {
          "internalType": "uint256",
          "name": "",
          "type": "uint256"
        }
      ],
      "name": "candidates",
      "outputs": [
        {
          "internalType": "string",
          "name": "name",
          "type": "string"
        },
        {
          "internalType": "uint256",
          "name": "votecount",
          "type": "uint256"
        }
      ],
      "stateMutability": "view",
      "type": "function"
    },
    {
      "inputs": [
        {
          "internalType": "address",
          "name": "_newcontroller",
          "type": "address"
        }
      ],
      "name": "changeowner",
      "outputs": [],
      "stateMutability": "nonpayable",
      "type": "function"
    },
    {
      "inputs": [],
      "name": "controller",
      "outputs": [
        {
          "internalType": "address",
          "name": "",
          "type": "address"
        }
      ],
      "stateMutability": "view",
      "type": "function"
    },
    {
      "inputs": [],
      "name": "countcandidate",
      "outputs": [
        {
          "internalType": "uint256",
          "name": "",
          "type": "uint256"
        }
      ],
      "stateMutability": "view",
      "type": "function"
    },
    {
      "inputs": [
        {
          "internalType": "uint256",
          "name": "_candidateID",
          "type": "uint256"
        }
      ],
      "name": "countvotes",
      "outputs": [
        {
          "internalType": "uint256",
          "name": "",
          "type": "uint256"
        }
      ],
      "stateMutability": "view",
      "type": "function"
    },
    {
      "inputs": [
        {
          "internalType": "uint256",
          "name": "_candidateID",
          "type": "uint256"
        }
      ],
      "name": "getcandidate",
      "outputs": [
        {
          "internalType": "uint256",
          "name": "",
          "type": "uint256"
        },
        {
          "internalType": "string",
          "name": "",
          "type": "string"
        },
        {
          "internalType": "uint256",
          "name": "",
          "type": "uint256"
        }
      ],
      "stateMutability": "view",
      "type": "function"
    },
    {
      "inputs": [
        {
          "internalType": "address",
          "name": "_voter",
          "type": "address"
        }
      ],
      "name": "hasvoted",
      "outputs": [
        {
          "internalType": "bool",
          "name": "",
          "type": "bool"
        }
      ],
      "stateMutability": "view",
      "type": "function"
    },
    {
      "inputs": [
        {
          "internalType": "uint256",
          "name": "_candidateID",
          "type": "uint256"
        }
      ],
      "name": "removecandidate",
      "outputs": [],
      "stateMutability": "nonpayable",
      "type": "function"
    },
    {
      "inputs": [
        {
          "internalType": "uint256",
          "name": "_candidateID",
          "type": "uint256"
        }
      ],
      "name": "vote",
      "outputs": [],
      "stateMutability": "nonpayable",
      "type": "function"
    },
    {
      "inputs": [
        {
          "internalType": "address",
          "name": "",
          "type": "address"
        }
      ],
      "name": "voters",
      "outputs": [
        {
          "internalType": "uint256",
          "name": "Voted_For_ID",
          "type": "uint256"
        },
        {
          "internalType": "bool",
          "name": "HasVoted",
          "type": "bool"
        }
      ],
      "stateMutability": "view",
      "type": "function"
    }
  ],
  "bytecode": "0x608060405234801561001057600080fd5b50336000806101000a81548173ffffffffffffffffffffffffffffffffffffffff021916908373ffffffffffffffffffffffffffffffffffffffff1602179055506000600181905550611610806100686000396000f3fe608060405234801561001057600080fd5b50600436106100a95760003560e01c8063662e4ee411610071578063662e4ee41461017b5780638305abd9146101975780638c4feafa146101b3578063a3ec138d146101e3578063d2de84b614610214578063f77c479114610230576100a9565b80630121b93f146100ae5780630d04272b146100ca5780632b499cab146100fc5780632eab39b11461012c5780633477ee2e1461014a575b600080fd5b6100c860048036038101906100c39190610ca3565b61024e565b005b6100e460048036038101906100df9190610ca3565b61043a565b6040516100f393929190610d6f565b60405180910390f35b61011660048036038101906101119190610e0b565b61056a565b6040516101239190610e53565b60405180910390f35b6101346105c3565b6040516101419190610e6e565b60405180910390f35b610164600480360381019061015f9190610ca3565b6105c9565b604051610172929190610e89565b60405180910390f35b61019560048036038101906101909190610e0b565b610675565b005b6101b160048036038101906101ac9190610fee565b610815565b005b6101cd60048036038101906101c89190610ca3565b610946565b6040516101da9190610e6e565b60405180910390f35b6101fd60048036038101906101f89190610e0b565b6109b9565b60405161020b929190611037565b60405180910390f35b61022e60048036038101906102299190610ca3565b6109ea565b005b610238610bd8565b604051610245919061106f565b60405180910390f35b600360003373ffffffffffffffffffffffffffffffffffffffff1673ffffffffffffffffffffffffffffffffffffffff16815260200190815260200160002060010160009054906101000a900460ff16156102de576040517f08c379a00000000000000000000000000000000000000000000000000000000081526004016102d5906110d6565b60405180910390fd5b806000811180156102f157506001548111155b610330576040517f08c379a000000000000000000000000000000000000000000000000000000000815260040161032790611142565b60405180910390fd5b6001600360003373ffffffffffffffffffffffffffffffffffffffff1673ffffffffffffffffffffffffffffffffffffffff16815260200190815260200160002060010160006101000a81548160ff02191690831515021790555081600360003373ffffffffffffffffffffffffffffffffffffffff1673ffffffffffffffffffffffffffffffffffffffff168152602001908152602001600020600001819055506002600083815260200190815260200160002060010160008154809291906103f990611191565b9190505550817f5277b4aef6ff52b684d3331f3dc11a365dc48e3f9eb6a8ed8015e97ae4c3a7513360405161042e919061106f565b60405180910390a25050565b6000606060008360008111801561045357506001548111155b610492576040517f08c379a000000000000000000000000000000000000000000000000000000000815260040161048990611142565b60405180910390fd5b6000600260008781526020019081526020016000206040518060400160405290816000820180546104c290611208565b80601f01602080910402602001604051908101604052809291908181526020018280546104ee90611208565b801561053b5780601f106105105761010080835404028352916020019161053b565b820191906000526020600020905b81548152906001019060200180831161051e57829003601f168201915b505050505081526020016001820154815250509050858160000151826020015194509450945050509193909250565b6000600360008373ffffffffffffffffffffffffffffffffffffffff1673ffffffffffffffffffffffffffffffffffffffff16815260200190815260200160002060010160009054906101000a900460ff169050919050565b60015481565b60026020528060005260406000206000915090508060000180546105ec90611208565b80601f016020809104026020016040519081016040528092919081815260200182805461061890611208565b80156106655780601f1061063a57610100808354040283529160200191610665565b820191906000526020600020905b81548152906001019060200180831161064857829003601f168201915b5050505050908060010154905082565b60008054906101000a900473ffffffffffffffffffffffffffffffffffffffff1673ffffffffffffffffffffffffffffffffffffffff163373ffffffffffffffffffffffffffffffffffffffff1614610703576040517f08c379a00000000000000000000000000000000000000000000000000000000081526004016106fa90611285565b60405180910390fd5b600073ffffffffffffffffffffffffffffffffffffffff168173ffffffffffffffffffffffffffffffffffffffff1603610772576040517f08c379a0000000000000000000000000000000000000000000000000000000008152600401610769906112f1565b60405180910390fd5b60008060009054906101000a900473ffffffffffffffffffffffffffffffffffffffff169050816000806101000a81548173ffffffffffffffffffffffffffffffffffffffff021916908373ffffffffffffffffffffffffffffffffffffffff1602179055507f9d56941bffcfb6c001570994187f3388feff32ed1fad61c4532bdbab5faeb2d08183604051610809929190611311565b60405180910390a15050565b60008054906101000a900473ffffffffffffffffffffffffffffffffffffffff1673ffffffffffffffffffffffffffffffffffffffff163373ffffffffffffffffffffffffffffffffffffffff16146108a3576040517f08c379a000000000000000000000000000000000000000000000000000000000815260040161089a90611285565b60405180910390fd5b600160008154809291906108b690611191565b91905055506040518060400160405280828152602001600081525060026000600154815260200190815260200160002060008201518160000190816108fb91906114e6565b50602082015181600101559050506001547f738cc496928ae44a9d42eb2efb3d921b36672f2975e0a48d4db9927908b3a0c28260405161093b91906115b8565b60405180910390a250565b60008160008111801561095b57506001548111155b61099a576040517f08c379a000000000000000000000000000000000000000000000000000000000815260040161099190611142565b60405180910390fd5b6002600084815260200190815260200160002060010154915050919050565b60036020528060005260406000206000915090508060000154908060010160009054906101000a900460ff16905082565b60008054906101000a900473ffffffffffffffffffffffffffffffffffffffff1673ffffffffffffffffffffffffffffffffffffffff163373ffffffffffffffffffffffffffffffffffffffff1614610a78576040517f08c379a0000000000000000000000000000000000000000000000000000000008152600401610a6f90611285565b60405180910390fd5b80600081118015610a8b57506001548111155b610aca576040517f08c379a0000000000000000000000000000000000000000000000000000000008152600401610ac190611142565b60405180910390fd5b6000600260008481526020019081526020016000206000018054610aed90611208565b80601f0160208091040260200160405190810160405280929190818152602001828054610b1990611208565b8015610b665780601f10610b3b57610100808354040283529160200191610b66565b820191906000526020600020905b815481529060010190602001808311610b4957829003601f168201915b505050505090506002600084815260200190815260200160002060008082016000610b919190610bfc565b60018201600090555050827f2dc4436fde8cc3935f25f589260fa5ee25ca3f467d8dd8ef1968db72a66ab20882604051610bcb91906115b8565b60405180910390a2505050565b60008054906101000a900473ffffffffffffffffffffffffffffffffffffffff1681565b508054610c0890611208565b6000825580601f10610c1a5750610c39565b601f016020900490600052602060002090810190610c389190610c3c565b5b50565b5b80821115610c55576000816000905550600101610c3d565b5090565b6000604051905090565b600080fd5b600080fd5b6000819050919050565b610c8081610c6d565b8114610c8b57600080fd5b50565b600081359050610c9d81610c77565b92915050565b600060208284031215610cb957610cb8610c63565b5b6000610cc784828501610c8e565b91505092915050565b610cd981610c6d565b82525050565b600081519050919050565b600082825260208201905092915050565b60005b83811015610d19578082015181840152602081019050610cfe565b60008484015250505050565b6000601f19601f8301169050919050565b6000610d4182610cdf565b610d4b8185610cea565b9350610d5b818560208601610cfb565b610d6481610d25565b840191505092915050565b6000606082019050610d846000830186610cd0565b8181036020830152610d968185610d36565b9050610da56040830184610cd0565b949350505050565b600073ffffffffffffffffffffffffffffffffffffffff82169050919050565b6000610dd882610dad565b9050919050565b610de881610dcd565b8114610df357600080fd5b50565b600081359050610e0581610ddf565b92915050565b600060208284031215610e2157610e20610c63565b5b6000610e2f84828501610df6565b91505092915050565b60008115159050919050565b610e4d81610e38565b82525050565b6000602082019050610e686000830184610e44565b92915050565b6000602082019050610e836000830184610cd0565b92915050565b60006040820190508181036000830152610ea38185610d36565b9050610eb26020830184610cd0565b9392505050565b600080fd5b600080fd5b7f4e487b7100000000000000000000000000000000000000000000000000000000600052604160045260246000fd5b610efb82610d25565b810181811067ffffffffffffffff82111715610f1a57610f19610ec3565b5b80604052505050565b6000610f2d610c59565b9050610f398282610ef2565b919050565b600067ffffffffffffffff821115610f5957610f58610ec3565b5b610f6282610d25565b9050602081019050919050565b82818337600083830152505050565b6000610f91610f8c84610f3e565b610f23565b905082815260208101848484011115610fad57610fac610ebe565b5b610fb8848285610f6f565b509392505050565b600082601f830112610fd557610fd4610eb9565b5b8135610fe5848260208601610f7e565b91505092915050565b60006020828403121561100457611003610c63565b5b600082013567ffffffffffffffff81111561102257611021610c68565b5b61102e84828501610fc0565b91505092915050565b600060408201905061104c6000830185610cd0565b6110596020830184610e44565b9392505050565b61106981610dcd565b82525050565b60006020820190506110846000830184611060565b92915050565b7f796f75206861766520616c726561647920766f74656400000000000000000000600082015250565b60006110c0601683610cea565b91506110cb8261108a565b602082019050919050565b600060208201905081810360008301526110ef816110b3565b9050919050565b7f496e76616c69642063616e646964617465204944000000000000000000000000600082015250565b600061112c601483610cea565b9150611137826110f6565b602082019050919050565b6000602082019050818103600083015261115b8161111f565b9050919050565b7f4e487b7100000000000000000000000000000000000000000000000000000000600052601160045260246000fd5b600061119c82610c6d565b91507fffffffffffffffffffffffffffffffffffffffffffffffffffffffffffffffff82036111ce576111cd611162565b5b600182019050919050565b7f4e487b7100000000000000000000000000000000000000000000000000000000600052602260045260246000fd5b6000600282049050600182168061122057607f821691505b602082108103611233576112326111d9565b5b50919050565b7f6f6e6c7920636f6e74726f6c6c65722063616e20646f2074686973207461736b600082015250565b600061126f602083610cea565b915061127a82611239565b602082019050919050565b6000602082019050818103600083015261129e81611262565b9050919050565b7f496e76616c696420616464726573730000000000000000000000000000000000600082015250565b60006112db600f83610cea565b91506112e6826112a5565b602082019050919050565b6000602082019050818103600083015261130a816112ce565b9050919050565b60006040820190506113266000830185611060565b6113336020830184611060565b9392505050565b60008190508160005260206000209050919050565b60006020601f8301049050919050565b600082821b905092915050565b60006008830261139c7fffffffffffffffffffffffffffffffffffffffffffffffffffffffffffffffff8261135f565b6113a6868361135f565b95508019841693508086168417925050509392505050565b6000819050919050565b60006113e36113de6113d984610c6d565b6113be565b610c6d565b9050919050565b6000819050919050565b6113fd836113c8565b611411611409826113ea565b84845461136c565b825550505050565b600090565b611426611419565b6114318184846113f4565b505050565b5b818110156114555761144a60008261141e565b600181019050611437565b5050565b601f82111561149a5761146b8161133a565b6114748461134f565b81016020851015611483578190505b61149761148f8561134f565b830182611436565b50505b505050565b600082821c905092915050565b60006114bd6000198460080261149f565b1980831691505092915050565b60006114d683836114ac565b9150826002028217905092915050565b6114ef82610cdf565b67ffffffffffffffff81111561150857611507610ec3565b5b6115128254611208565b61151d828285611459565b600060209050601f831160018114611550576000841561153e578287015190505b61154885826114ca565b8655506115b0565b601f19841661155e8661133a565b60005b8281101561158657848901518255600182019150602085019450602081019050611561565b868310156115a3578489015161159f601f8916826114ac565b8355505b6001600288020188555050505b505050505050565b600060208201905081810360008301526115d28184610d36565b90509291505056fea26469706673582212202aa7c477f62fd506334838bae40668f8e1d7219545b185015aded6b91fda2d2264736f6c63430008120033",
  "linkReferences": {},
  "deployedLinkReferences": {}
}