{
  "_format": "hh-sol-artifact-1",
  "contractName": "elections",
  "sourceName": "contracts/elections.sol",
  "abi": [
    {
      "inputs": [],
      "stateMutability": "nonpayable",
      "type": "constructor"
    },
    {
      "anonymous": false,
      "inputs": [
        {
          "indexed": true,
          "internalType": "uint256",
          "name": "candidateID",
          "type": "uint256"
        },
        {
          "indexed": false,
          "internalType": "string",
          "name": "name",
          "type": "string"
        }
      ],
      "name": "candidateadded",
      "type": "event"
    },
    {
      "anonymous": false,
      "inputs": [
        {
          "indexed": true,
          "internalType": "uint256",
          "name": "candidateID",
          "type": "uint256"
        },
        {
          "indexed": false,
          "internalType": "string",
          "name": "name",
          "type": "string"
        }
      ],
      "name": "candidateremoved",
      "type": "event"
    },
    {
      "anonymous": false,
      "inputs": [
        {
          "indexed": false,
          "internalType": "address",
          "name": "oldcontroller",
          "type": "address"
        },
        {
          "indexed": false,
          "internalType": "address",
          "name": "newcontroller",
          "type": "address"
        }
      ],
      "name": "controllerchanged",
      "type": "event"
    },
    {
      "anonymous": false,
      "inputs": [
        {
          "indexed": true,
          "internalType": "uint256",
          "name": "candidateID",
          "type": "uint256"
        },
        {
          "indexed": false,
          "internalType": "address",
          "name": "voter",
          "type": "address"
        }
      ],
      "name": "voted",
      "type": "event"
    },
    {
      "inputs": [
        {
          "internalType": "string",
          "name": "_candidatename",
          "type": "string"
        }
      ],
      "name": "addcandidate",
      "outputs": [],
      "stateMutability": "nonpayable",
      "type": "function"
    },
    {
      "inputs": [
        {
          "internalType": "uint256",
          "name": "",
          "type": "uint256"
        }
      ],
      "name": "candidates",
      "outputs": [
        {
          "internalType": "string",
          "name": "name",
          "type": "string"
        },
        {
          "internalType": "uint256",
          "name": "votecount",
          "type": "uint256"
        }
      ],
      "stateMutability": "view",
      "type": "function"
    },
    {
      "inputs": [
        {
          "internalType": "address",
          "name": "_newcontroller",
          "type": "address"
        }
      ],
      "name": "changeowner",
      "outputs": [],
      "stateMutability": "nonpayable",
      "type": "function"
    },
    {
      "inputs": [],
      "name": "controller",
      "outputs": [
        {
          "internalType": "address",
          "name": "",
          "type": "address"
        }
      ],
      "stateMutability": "view",
      "type": "function"
    },
    {
      "inputs": [],
      "name": "countcandidate",
      "outputs": [
        {
          "internalType": "uint256",
          "name": "",
          "type": "uint256"
        }
      ],
      "stateMutability": "view",
      "type": "function"
    },
    {
      "inputs": [
        {
          "internalType": "uint256",
          "name": "_candidateID",
          "type": "uint256"
        }
      ],
      "name": "countvotes",
      "outputs": [
        {
          "internalType": "uint256",
          "name": "",
          "type": "uint256"
        }
      ],
      "stateMutability": "view",
      "type": "function"
    },
    {
      "inputs": [],
      "name": "getController",
      "outputs": [
        {
          "internalType": "address",
          "name": "",
          "type": "address"
        }
      ],
      "stateMutability": "view",
      "type": "function"
    },
    {
      "inputs": [
        {
          "internalType": "uint256",
          "name": "_candidateID",
          "type": "uint256"
        }
      ],
      "name": "getcandidate",
      "outputs": [
        {
          "internalType": "uint256",
          "name": "",
          "type": "uint256"
        },
        {
          "internalType": "string",
          "name": "",
          "type": "string"
        },
        {
          "internalType": "uint256",
          "name": "",
          "type": "uint256"
        }
      ],
      "stateMutability": "view",
      "type": "function"
    },
    {
      "inputs": [
        {
          "internalType": "address",
          "name": "_voter",
          "type": "address"
        }
      ],
      "name": "hasvoted",
      "outputs": [
        {
          "internalType": "bool",
          "name": "",
          "type": "bool"
        }
      ],
      "stateMutability": "view",
      "type": "function"
    },
    {
      "inputs": [
        {
          "internalType": "uint256",
          "name": "_candidateID",
          "type": "uint256"
        }
      ],
      "name": "removecandidate",
      "outputs": [],
      "stateMutability": "nonpayable",
      "type": "function"
    },
    {
      "inputs": [
        {
          "internalType": "uint256",
          "name": "_candidateID",
          "type": "uint256"
        }
      ],
      "name": "vote",
      "outputs": [],
      "stateMutability": "nonpayable",
      "type": "function"
    },
    {
      "inputs": [
        {
          "internalType": "address",
          "name": "",
          "type": "address"
        }
      ],
      "name": "voters",
      "outputs": [
        {
          "internalType": "uint256",
          "name": "Voted_For_ID",
          "type": "uint256"
        },
        {
          "internalType": "bool",
          "name": "HasVoted",
          "type": "bool"
        }
      ],
      "stateMutability": "view",
      "type": "function"
    }
  ],
  "bytecode": "0x608060405234801561001057600080fd5b50336000806101000a81548173ffffffffffffffffffffffffffffffffffffffff021916908373ffffffffffffffffffffffffffffffffffffffff1602179055506000600181905550611662806100686000396000f3fe608060405234801561001057600080fd5b50600436106100b45760003560e01c8063662e4ee411610071578063662e4ee4146101a45780638305abd9146101c05780638c4feafa146101dc578063a3ec138d1461020c578063d2de84b61461023d578063f77c479114610259576100b4565b80630121b93f146100b95780630d04272b146100d55780632b499cab146101075780632eab39b1146101375780633018205f146101555780633477ee2e14610173575b600080fd5b6100d360048036038101906100ce9190610cf5565b610277565b005b6100ef60048036038101906100ea9190610cf5565b610463565b6040516100fe93929190610dc1565b60405180910390f35b610121600480360381019061011c9190610e5d565b610593565b60405161012e9190610ea5565b60405180910390f35b61013f6105ec565b60405161014c9190610ec0565b60405180910390f35b61015d6105f2565b60405161016a9190610eea565b60405180910390f35b61018d60048036038101906101889190610cf5565b61061b565b60405161019b929190610f05565b60405180910390f35b6101be60048036038101906101b99190610e5d565b6106c7565b005b6101da60048036038101906101d5919061106a565b610867565b005b6101f660048036038101906101f19190610cf5565b610998565b6040516102039190610ec0565b60405180910390f35b61022660048036038101906102219190610e5d565b610a0b565b6040516102349291906110b3565b60405180910390f35b61025760048036038101906102529190610cf5565b610a3c565b005b610261610c2a565b60405161026e9190610eea565b60405180910390f35b600360003373ffffffffffffffffffffffffffffffffffffffff1673ffffffffffffffffffffffffffffffffffffffff16815260200190815260200160002060010160009054906101000a900460ff1615610307576040517f08c379a00000000000000000000000000000000000000000000000000000000081526004016102fe90611128565b60405180910390fd5b8060008111801561031a57506001548111155b610359576040517f08c379a000000000000000000000000000000000000000000000000000000000815260040161035090611194565b60405180910390fd5b6001600360003373ffffffffffffffffffffffffffffffffffffffff1673ffffffffffffffffffffffffffffffffffffffff16815260200190815260200160002060010160006101000a81548160ff02191690831515021790555081600360003373ffffffffffffffffffffffffffffffffffffffff1673ffffffffffffffffffffffffffffffffffffffff16815260200190815260200160002060000181905550600260008381526020019081526020016000206001016000815480929190610422906111e3565b9190505550817f5277b4aef6ff52b684d3331f3dc11a365dc48e3f9eb6a8ed8015e97ae4c3a751336040516104579190610eea565b60405180910390a25050565b6000606060008360008111801561047c57506001548111155b6104bb576040517f08c379a00000000000000000000000000000000000000000000000000000000081526004016104b290611194565b60405180910390fd5b6000600260008781526020019081526020016000206040518060400160405290816000820180546104eb9061125a565b80601f01602080910402602001604051908101604052809291908181526020018280546105179061125a565b80156105645780601f1061053957610100808354040283529160200191610564565b820191906000526020600020905b81548152906001019060200180831161054757829003601f168201915b505050505081526020016001820154815250509050858160000151826020015194509450945050509193909250565b6000600360008373ffffffffffffffffffffffffffffffffffffffff1673ffffffffffffffffffffffffffffffffffffffff16815260200190815260200160002060010160009054906101000a900460ff169050919050565b60015481565b60008060009054906101000a900473ffffffffffffffffffffffffffffffffffffffff16905090565b600260205280600052604060002060009150905080600001805461063e9061125a565b80601f016020809104026020016040519081016040528092919081815260200182805461066a9061125a565b80156106b75780601f1061068c576101008083540402835291602001916106b7565b820191906000526020600020905b81548152906001019060200180831161069a57829003601f168201915b5050505050908060010154905082565b60008054906101000a900473ffffffffffffffffffffffffffffffffffffffff1673ffffffffffffffffffffffffffffffffffffffff163373ffffffffffffffffffffffffffffffffffffffff1614610755576040517f08c379a000000000000000000000000000000000000000000000000000000000815260040161074c906112d7565b60405180910390fd5b600073ffffffffffffffffffffffffffffffffffffffff168173ffffffffffffffffffffffffffffffffffffffff16036107c4576040517f08c379a00000000000000000000000000000000000000000000000000000000081526004016107bb90611343565b60405180910390fd5b60008060009054906101000a900473ffffffffffffffffffffffffffffffffffffffff169050816000806101000a81548173ffffffffffffffffffffffffffffffffffffffff021916908373ffffffffffffffffffffffffffffffffffffffff1602179055507f9d56941bffcfb6c001570994187f3388feff32ed1fad61c4532bdbab5faeb2d0818360405161085b929190611363565b60405180910390a15050565b60008054906101000a900473ffffffffffffffffffffffffffffffffffffffff1673ffffffffffffffffffffffffffffffffffffffff163373ffffffffffffffffffffffffffffffffffffffff16146108f5576040517f08c379a00000000000000000000000000000000000000000000000000000000081526004016108ec906112d7565b60405180910390fd5b60016000815480929190610908906111e3565b919050555060405180604001604052808281526020016000815250600260006001548152602001908152602001600020600082015181600001908161094d9190611538565b50602082015181600101559050506001547f738cc496928ae44a9d42eb2efb3d921b36672f2975e0a48d4db9927908b3a0c28260405161098d919061160a565b60405180910390a250565b6000816000811180156109ad57506001548111155b6109ec576040517f08c379a00000000000000000000000000000000000000000000000000000000081526004016109e390611194565b60405180910390fd5b6002600084815260200190815260200160002060010154915050919050565b60036020528060005260406000206000915090508060000154908060010160009054906101000a900460ff16905082565b60008054906101000a900473ffffffffffffffffffffffffffffffffffffffff1673ffffffffffffffffffffffffffffffffffffffff163373ffffffffffffffffffffffffffffffffffffffff1614610aca576040517f08c379a0000000000000000000000000000000000000000000000000000000008152600401610ac1906112d7565b60405180910390fd5b80600081118015610add57506001548111155b610b1c576040517f08c379a0000000000000000000000000000000000000000000000000000000008152600401610b1390611194565b60405180910390fd5b6000600260008481526020019081526020016000206000018054610b3f9061125a565b80601f0160208091040260200160405190810160405280929190818152602001828054610b6b9061125a565b8015610bb85780601f10610b8d57610100808354040283529160200191610bb8565b820191906000526020600020905b815481529060010190602001808311610b9b57829003601f168201915b505050505090506002600084815260200190815260200160002060008082016000610be39190610c4e565b60018201600090555050827f2dc4436fde8cc3935f25f589260fa5ee25ca3f467d8dd8ef1968db72a66ab20882604051610c1d919061160a565b60405180910390a2505050565b60008054906101000a900473ffffffffffffffffffffffffffffffffffffffff1681565b508054610c5a9061125a565b6000825580601f10610c6c5750610c8b565b601f016020900490600052602060002090810190610c8a9190610c8e565b5b50565b5b80821115610ca7576000816000905550600101610c8f565b5090565b6000604051905090565b600080fd5b600080fd5b6000819050919050565b610cd281610cbf565b8114610cdd57600080fd5b50565b600081359050610cef81610cc9565b92915050565b600060208284031215610d0b57610d0a610cb5565b5b6000610d1984828501610ce0565b91505092915050565b610d2b81610cbf565b82525050565b600081519050919050565b600082825260208201905092915050565b60005b83811015610d6b578082015181840152602081019050610d50565b60008484015250505050565b6000601f19601f8301169050919050565b6000610d9382610d31565b610d9d8185610d3c565b9350610dad818560208601610d4d565b610db681610d77565b840191505092915050565b6000606082019050610dd66000830186610d22565b8181036020830152610de88185610d88565b9050610df76040830184610d22565b949350505050565b600073ffffffffffffffffffffffffffffffffffffffff82169050919050565b6000610e2a82610dff565b9050919050565b610e3a81610e1f565b8114610e4557600080fd5b50565b600081359050610e5781610e31565b92915050565b600060208284031215610e7357610e72610cb5565b5b6000610e8184828501610e48565b91505092915050565b60008115159050919050565b610e9f81610e8a565b82525050565b6000602082019050610eba6000830184610e96565b92915050565b6000602082019050610ed56000830184610d22565b92915050565b610ee481610e1f565b82525050565b6000602082019050610eff6000830184610edb565b92915050565b60006040820190508181036000830152610f1f8185610d88565b9050610f2e6020830184610d22565b9392505050565b600080fd5b600080fd5b7f4e487b7100000000000000000000000000000000000000000000000000000000600052604160045260246000fd5b610f7782610d77565b810181811067ffffffffffffffff82111715610f9657610f95610f3f565b5b80604052505050565b6000610fa9610cab565b9050610fb58282610f6e565b919050565b600067ffffffffffffffff821115610fd557610fd4610f3f565b5b610fde82610d77565b9050602081019050919050565b82818337600083830152505050565b600061100d61100884610fba565b610f9f565b90508281526020810184848401111561102957611028610f3a565b5b611034848285610feb565b509392505050565b600082601f83011261105157611050610f35565b5b8135611061848260208601610ffa565b91505092915050565b6000602082840312156110805761107f610cb5565b5b600082013567ffffffffffffffff81111561109e5761109d610cba565b5b6110aa8482850161103c565b91505092915050565b60006040820190506110c86000830185610d22565b6110d56020830184610e96565b9392505050565b7f796f75206861766520616c726561647920766f74656400000000000000000000600082015250565b6000611112601683610d3c565b915061111d826110dc565b602082019050919050565b6000602082019050818103600083015261114181611105565b9050919050565b7f496e76616c69642063616e646964617465204944000000000000000000000000600082015250565b600061117e601483610d3c565b915061118982611148565b602082019050919050565b600060208201905081810360008301526111ad81611171565b9050919050565b7f4e487b7100000000000000000000000000000000000000000000000000000000600052601160045260246000fd5b60006111ee82610cbf565b91507fffffffffffffffffffffffffffffffffffffffffffffffffffffffffffffffff82036112205761121f6111b4565b5b600182019050919050565b7f4e487b7100000000000000000000000000000000000000000000000000000000600052602260045260246000fd5b6000600282049050600182168061127257607f821691505b6020821081036112855761128461122b565b5b50919050565b7f6f6e6c7920636f6e74726f6c6c65722063616e20646f2074686973207461736b600082015250565b60006112c1602083610d3c565b91506112cc8261128b565b602082019050919050565b600060208201905081810360008301526112f0816112b4565b9050919050565b7f496e76616c696420616464726573730000000000000000000000000000000000600082015250565b600061132d600f83610d3c565b9150611338826112f7565b602082019050919050565b6000602082019050818103600083015261135c81611320565b9050919050565b60006040820190506113786000830185610edb565b6113856020830184610edb565b9392505050565b60008190508160005260206000209050919050565b60006020601f8301049050919050565b600082821b905092915050565b6000600883026113ee7fffffffffffffffffffffffffffffffffffffffffffffffffffffffffffffffff826113b1565b6113f886836113b1565b95508019841693508086168417925050509392505050565b6000819050919050565b600061143561143061142b84610cbf565b611410565b610cbf565b9050919050565b6000819050919050565b61144f8361141a565b61146361145b8261143c565b8484546113be565b825550505050565b600090565b61147861146b565b611483818484611446565b505050565b5b818110156114a75761149c600082611470565b600181019050611489565b5050565b601f8211156114ec576114bd8161138c565b6114c6846113a1565b810160208510156114d5578190505b6114e96114e1856113a1565b830182611488565b50505b505050565b600082821c905092915050565b600061150f600019846008026114f1565b1980831691505092915050565b600061152883836114fe565b9150826002028217905092915050565b61154182610d31565b67ffffffffffffffff81111561155a57611559610f3f565b5b611564825461125a565b61156f8282856114ab565b600060209050601f8311600181146115a25760008415611590578287015190505b61159a858261151c565b865550611602565b601f1984166115b08661138c565b60005b828110156115d8578489015182556001820191506020850194506020810190506115b3565b868310156115f557848901516115f1601f8916826114fe565b8355505b6001600288020188555050505b505050505050565b600060208201905081810360008301526116248184610d88565b90509291505056fea2646970667358221220e74ff2698f453d8edbcb5e2aa7212a352f71852eee54a3933a135968532bacde64736f6c63430008120033",
  "linkReferences": {},
  "deployedLinkReferences": {}
}