{
  "_format": "hh-sol-artifact-1",
  "contractName": "Elections",
  "sourceName": "contracts/elections.sol",
  "abi": [
    {
      "inputs": [],
      "stateMutability": "nonpayable",
      "type": "constructor"
    },
    {
      "anonymous": false,
      "inputs": [
        {
          "indexed": true,
          "internalType": "uint256",
          "name": "candidateID",
          "type": "uint256"
        },
        {
          "indexed": false,
          "internalType": "string",
          "name": "name",
          "type": "string"
        }
      ],
      "name": "candidateadded",
      "type": "event"
    },
    {
      "anonymous": false,
      "inputs": [
        {
          "indexed": true,
          "internalType": "uint256",
          "name": "candidateID",
          "type": "uint256"
        },
        {
          "indexed": false,
          "internalType": "string",
          "name": "name",
          "type": "string"
        }
      ],
      "name": "candidateremoved",
      "type": "event"
    },
    {
      "anonymous": false,
      "inputs": [
        {
          "indexed": false,
          "internalType": "address",
          "name": "oldcontroller",
          "type": "address"
        },
        {
          "indexed": false,
          "internalType": "address",
          "name": "newcontroller",
          "type": "address"
        }
      ],
      "name": "controllerchanged",
      "type": "event"
    },
    {
      "anonymous": false,
      "inputs": [
        {
          "indexed": true,
          "internalType": "uint256",
          "name": "candidateID",
          "type": "uint256"
        },
        {
          "indexed": false,
          "internalType": "address",
          "name": "voter",
          "type": "address"
        }
      ],
      "name": "voted",
      "type": "event"
    },
    {
      "inputs": [
        {
          "internalType": "string",
          "name": "_candidatename",
          "type": "string"
        }
      ],
      "name": "addcandidate",
      "outputs": [],
      "stateMutability": "nonpayable",
      "type": "function"
    },
    {
      "inputs": [
        {
          "internalType": "uint256",
          "name": "",
          "type": "uint256"
        }
      ],
      "name": "candidates",
      "outputs": [
        {
          "internalType": "string",
          "name": "name",
          "type": "string"
        },
        {
          "internalType": "uint256",
          "name": "votecount",
          "type": "uint256"
        }
      ],
      "stateMutability": "view",
      "type": "function"
    },
    {
      "inputs": [
        {
          "internalType": "address",
          "name": "_newcontroller",
          "type": "address"
        }
      ],
      "name": "changeowner",
      "outputs": [],
      "stateMutability": "nonpayable",
      "type": "function"
    },
    {
      "inputs": [],
      "name": "controller",
      "outputs": [
        {
          "internalType": "address",
          "name": "",
          "type": "address"
        }
      ],
      "stateMutability": "view",
      "type": "function"
    },
    {
      "inputs": [],
      "name": "countcandidate",
      "outputs": [
        {
          "internalType": "uint256",
          "name": "",
          "type": "uint256"
        }
      ],
      "stateMutability": "view",
      "type": "function"
    },
    {
      "inputs": [
        {
          "internalType": "uint256",
          "name": "_candidateID",
          "type": "uint256"
        }
      ],
      "name": "countvotes",
      "outputs": [
        {
          "internalType": "uint256",
          "name": "",
          "type": "uint256"
        }
      ],
      "stateMutability": "view",
      "type": "function"
    },
    {
      "inputs": [],
      "name": "getController",
      "outputs": [
        {
          "internalType": "address",
          "name": "",
          "type": "address"
        }
      ],
      "stateMutability": "view",
      "type": "function"
    },
    {
      "inputs": [
        {
          "internalType": "uint256",
          "name": "_candidateID",
          "type": "uint256"
        }
      ],
      "name": "getcandidate",
      "outputs": [
        {
          "internalType": "uint256",
          "name": "",
          "type": "uint256"
        },
        {
          "internalType": "string",
          "name": "",
          "type": "string"
        },
        {
          "internalType": "uint256",
          "name": "",
          "type": "uint256"
        }
      ],
      "stateMutability": "view",
      "type": "function"
    },
    {
      "inputs": [
        {
          "internalType": "address",
          "name": "_voter",
          "type": "address"
        }
      ],
      "name": "hasvoted",
      "outputs": [
        {
          "internalType": "bool",
          "name": "",
          "type": "bool"
        }
      ],
      "stateMutability": "view",
      "type": "function"
    },
    {
      "inputs": [
        {
          "internalType": "uint256",
          "name": "_candidateID",
          "type": "uint256"
        }
      ],
      "name": "removecandidate",
      "outputs": [],
      "stateMutability": "nonpayable",
      "type": "function"
    },
    {
      "inputs": [
        {
          "internalType": "uint256",
          "name": "_candidateID",
          "type": "uint256"
        }
      ],
      "name": "vote",
      "outputs": [],
      "stateMutability": "nonpayable",
      "type": "function"
    },
    {
      "inputs": [
        {
          "internalType": "address",
          "name": "",
          "type": "address"
        }
      ],
      "name": "voters",
      "outputs": [
        {
          "internalType": "uint256",
          "name": "Voted_For_ID",
          "type": "uint256"
        },
        {
          "internalType": "bool",
          "name": "HasVoted",
          "type": "bool"
        }
      ],
      "stateMutability": "view",
      "type": "function"
    }
  ],
  "bytecode": "0x608060405234801561001057600080fd5b50336000806101000a81548173ffffffffffffffffffffffffffffffffffffffff021916908373ffffffffffffffffffffffffffffffffffffffff16021790555060006001819055506113fb806100686000396000f3fe608060405234801561001057600080fd5b50600436106100b45760003560e01c8063662e4ee411610071578063662e4ee4146101a45780638305abd9146101c05780638c4feafa146101dc578063a3ec138d1461020c578063d2de84b61461023d578063f77c479114610259576100b4565b80630121b93f146100b95780630d04272b146100d55780632b499cab146101075780632eab39b1146101375780633018205f146101555780633477ee2e14610173575b600080fd5b6100d360048036038101906100ce9190610e35565b610277565b005b6100ef60048036038101906100ea9190610e35565b610463565b6040516100fe93929190611139565b60405180910390f35b610121600480360381019061011c9190610dcb565b610593565b60405161012e9190611008565b60405180910390f35b61013f6105ec565b60405161014c91906110f5565b60405180910390f35b61015d6105f2565b60405161016a9190610fc4565b60405180910390f35b61018d60048036038101906101889190610e35565b61061b565b60405161019b929190611045565b60405180910390f35b6101be60048036038101906101b99190610dcb565b6106c7565b005b6101da60048036038101906101d59190610df4565b610868565b005b6101f660048036038101906101f19190610e35565b6109a0565b60405161020391906110f5565b60405180910390f35b61022660048036038101906102219190610dcb565b610a13565b604051610234929190611110565b60405180910390f35b61025760048036038101906102529190610e35565b610a44565b005b610261610c32565b60405161026e9190610fc4565b60405180910390f35b600360003373ffffffffffffffffffffffffffffffffffffffff1673ffffffffffffffffffffffffffffffffffffffff16815260200190815260200160002060010160009054906101000a900460ff1615610307576040517f08c379a00000000000000000000000000000000000000000000000000000000081526004016102fe90611095565b60405180910390fd5b8060008111801561031a57506001548111155b610359576040517f08c379a0000000000000000000000000000000000000000000000000000000008152600401610350906110d5565b60405180910390fd5b6001600360003373ffffffffffffffffffffffffffffffffffffffff1673ffffffffffffffffffffffffffffffffffffffff16815260200190815260200160002060010160006101000a81548160ff02191690831515021790555081600360003373ffffffffffffffffffffffffffffffffffffffff1673ffffffffffffffffffffffffffffffffffffffff16815260200190815260200160002060000181905550600260008381526020019081526020016000206001016000815480929190610422906112b0565b9190505550817f5277b4aef6ff52b684d3331f3dc11a365dc48e3f9eb6a8ed8015e97ae4c3a751336040516104579190610fc4565b60405180910390a25050565b6000606060008360008111801561047c57506001548111155b6104bb576040517f08c379a00000000000000000000000000000000000000000000000000000000081526004016104b2906110d5565b60405180910390fd5b6000600260008781526020019081526020016000206040518060400160405290816000820180546104eb9061127e565b80601f01602080910402602001604051908101604052809291908181526020018280546105179061127e565b80156105645780601f1061053957610100808354040283529160200191610564565b820191906000526020600020905b81548152906001019060200180831161054757829003601f168201915b505050505081526020016001820154815250509050858160000151826020015194509450945050509193909250565b6000600360008373ffffffffffffffffffffffffffffffffffffffff1673ffffffffffffffffffffffffffffffffffffffff16815260200190815260200160002060010160009054906101000a900460ff169050919050565b60015481565b60008060009054906101000a900473ffffffffffffffffffffffffffffffffffffffff16905090565b600260205280600052604060002060009150905080600001805461063e9061127e565b80601f016020809104026020016040519081016040528092919081815260200182805461066a9061127e565b80156106b75780601f1061068c576101008083540402835291602001916106b7565b820191906000526020600020905b81548152906001019060200180831161069a57829003601f168201915b5050505050908060010154905082565b60008054906101000a900473ffffffffffffffffffffffffffffffffffffffff1673ffffffffffffffffffffffffffffffffffffffff163373ffffffffffffffffffffffffffffffffffffffff1614610755576040517f08c379a000000000000000000000000000000000000000000000000000000000815260040161074c906110b5565b60405180910390fd5b600073ffffffffffffffffffffffffffffffffffffffff168173ffffffffffffffffffffffffffffffffffffffff1614156107c5576040517f08c379a00000000000000000000000000000000000000000000000000000000081526004016107bc90611075565b60405180910390fd5b60008060009054906101000a900473ffffffffffffffffffffffffffffffffffffffff169050816000806101000a81548173ffffffffffffffffffffffffffffffffffffffff021916908373ffffffffffffffffffffffffffffffffffffffff1602179055507f9d56941bffcfb6c001570994187f3388feff32ed1fad61c4532bdbab5faeb2d0818360405161085c929190610fdf565b60405180910390a15050565b60008054906101000a900473ffffffffffffffffffffffffffffffffffffffff1673ffffffffffffffffffffffffffffffffffffffff163373ffffffffffffffffffffffffffffffffffffffff16146108f6576040517f08c379a00000000000000000000000000000000000000000000000000000000081526004016108ed906110b5565b60405180910390fd5b60016000815480929190610909906112b0565b9190505550604051806040016040528082815260200160008152506002600060015481526020019081526020016000206000820151816000019080519060200190610955929190610c56565b50602082015181600101559050506001547f738cc496928ae44a9d42eb2efb3d921b36672f2975e0a48d4db9927908b3a0c2826040516109959190611023565b60405180910390a250565b6000816000811180156109b557506001548111155b6109f4576040517f08c379a00000000000000000000000000000000000000000000000000000000081526004016109eb906110d5565b60405180910390fd5b6002600084815260200190815260200160002060010154915050919050565b60036020528060005260406000206000915090508060000154908060010160009054906101000a900460ff16905082565b60008054906101000a900473ffffffffffffffffffffffffffffffffffffffff1673ffffffffffffffffffffffffffffffffffffffff163373ffffffffffffffffffffffffffffffffffffffff1614610ad2576040517f08c379a0000000000000000000000000000000000000000000000000000000008152600401610ac9906110b5565b60405180910390fd5b80600081118015610ae557506001548111155b610b24576040517f08c379a0000000000000000000000000000000000000000000000000000000008152600401610b1b906110d5565b60405180910390fd5b6000600260008481526020019081526020016000206000018054610b479061127e565b80601f0160208091040260200160405190810160405280929190818152602001828054610b739061127e565b8015610bc05780601f10610b9557610100808354040283529160200191610bc0565b820191906000526020600020905b815481529060010190602001808311610ba357829003601f168201915b505050505090506002600084815260200190815260200160002060008082016000610beb9190610cdc565b60018201600090555050827f2dc4436fde8cc3935f25f589260fa5ee25ca3f467d8dd8ef1968db72a66ab20882604051610c259190611023565b60405180910390a2505050565b60008054906101000a900473ffffffffffffffffffffffffffffffffffffffff1681565b828054610c629061127e565b90600052602060002090601f016020900481019282610c845760008555610ccb565b82601f10610c9d57805160ff1916838001178555610ccb565b82800160010185558215610ccb579182015b82811115610cca578251825591602001919060010190610caf565b5b509050610cd89190610d1c565b5090565b508054610ce89061127e565b6000825580601f10610cfa5750610d19565b601f016020900490600052602060002090810190610d189190610d1c565b5b50565b5b80821115610d35576000816000905550600101610d1d565b5090565b6000610d4c610d47846111a8565b611177565b905082815260208101848484011115610d6457600080fd5b610d6f84828561123c565b509392505050565b600081359050610d8681611397565b92915050565b600082601f830112610d9d57600080fd5b8135610dad848260208601610d39565b91505092915050565b600081359050610dc5816113ae565b92915050565b600060208284031215610ddd57600080fd5b6000610deb84828501610d77565b91505092915050565b600060208284031215610e0657600080fd5b600082013567ffffffffffffffff811115610e2057600080fd5b610e2c84828501610d8c565b91505092915050565b600060208284031215610e4757600080fd5b6000610e5584828501610db6565b91505092915050565b610e67816111f4565b82525050565b610e7681611206565b82525050565b6000610e87826111d8565b610e9181856111e3565b9350610ea181856020860161124b565b610eaa81611386565b840191505092915050565b6000610ec2600f836111e3565b91507f496e76616c6964206164647265737300000000000000000000000000000000006000830152602082019050919050565b6000610f026016836111e3565b91507f796f75206861766520616c726561647920766f746564000000000000000000006000830152602082019050919050565b6000610f426020836111e3565b91507f6f6e6c7920636f6e74726f6c6c65722063616e20646f2074686973207461736b6000830152602082019050919050565b6000610f826014836111e3565b91507f496e76616c69642063616e6469646174652049440000000000000000000000006000830152602082019050919050565b610fbe81611232565b82525050565b6000602082019050610fd96000830184610e5e565b92915050565b6000604082019050610ff46000830185610e5e565b6110016020830184610e5e565b9392505050565b600060208201905061101d6000830184610e6d565b92915050565b6000602082019050818103600083015261103d8184610e7c565b905092915050565b6000604082019050818103600083015261105f8185610e7c565b905061106e6020830184610fb5565b9392505050565b6000602082019050818103600083015261108e81610eb5565b9050919050565b600060208201905081810360008301526110ae81610ef5565b9050919050565b600060208201905081810360008301526110ce81610f35565b9050919050565b600060208201905081810360008301526110ee81610f75565b9050919050565b600060208201905061110a6000830184610fb5565b92915050565b60006040820190506111256000830185610fb5565b6111326020830184610e6d565b9392505050565b600060608201905061114e6000830186610fb5565b81810360208301526111608185610e7c565b905061116f6040830184610fb5565b949350505050565b6000604051905081810181811067ffffffffffffffff8211171561119e5761119d611357565b5b8060405250919050565b600067ffffffffffffffff8211156111c3576111c2611357565b5b601f19601f8301169050602081019050919050565b600081519050919050565b600082825260208201905092915050565b60006111ff82611212565b9050919050565b60008115159050919050565b600073ffffffffffffffffffffffffffffffffffffffff82169050919050565b6000819050919050565b82818337600083830152505050565b60005b8381101561126957808201518184015260208101905061124e565b83811115611278576000848401525b50505050565b6000600282049050600182168061129657607f821691505b602082108114156112aa576112a9611328565b5b50919050565b60006112bb82611232565b91507fffffffffffffffffffffffffffffffffffffffffffffffffffffffffffffffff8214156112ee576112ed6112f9565b5b600182019050919050565b7f4e487b7100000000000000000000000000000000000000000000000000000000600052601160045260246000fd5b7f4e487b7100000000000000000000000000000000000000000000000000000000600052602260045260246000fd5b7f4e487b7100000000000000000000000000000000000000000000000000000000600052604160045260246000fd5b6000601f19601f8301169050919050565b6113a0816111f4565b81146113ab57600080fd5b50565b6113b781611232565b81146113c257600080fd5b5056fea26469706673582212203cc8f2851ed96cd845b5d3e747e52adb1b66114a8baf38de7d4bc8bec911a0e464736f6c63430008000033",
  "linkReferences": {},
  "deployedLinkReferences": {}
}